:020000040800F2
:10000000C8050020010100088F1700084F120008E2
:100010008D1700086D010008CD18000800000000D1
:100020000000000000000000000000006D18000843
:100030006F01000800000000911700086F18000809
:100040001B0100081B0100081B0100081B01000820
:100050001B0100081B010008710100081B010008BA
:100060001B0100081B0100081B0100081B01000800
:100070001B0100081B0100081B0100081B010008F0
:100080001B0100081B0100081B0100081B010008E0
:100090001B0100081B0100081B0100081B010008D0
:1000A0001B0100081B0100081B0100081B010008C0
:1000B0001B0100081B0100081B0100081B010008B0
:1000C0001B0100081B0100081B0100081B010008A0
:1000D0001B0100081B0100081B0100081B01000890
:1000E0001B0100081B0100081B010008DFF80CD0F1
:1000F00000F02AF800480047FD1B0008C805002052
:100100000648804706480047FEE7FEE7FEE7FEE7B1
:10011000FEE7FEE7FEE7FEE7FEE7FEE7CB18000896
:10012000ED000008D2B201E000F8012B491EFBD21D
:1001300070470022F6E710B513460A4604461946F2
:10014000FFF7F0FF204610BD064C074D06E0E068C3
:1001500040F0010394E8070098471034AC42F6D30E
:10016000FFF7C8FFB8210008D8210008FEE7704754
:10017000012000F01DB8704770B5044600F01AF970
:100180000546601C02D004480078044400F012F9CF
:10019000401BA042FAD370BDB4000020012803D157
:1001A00002494878401C4870704700000000002059
:1001B000044910B50A68024202D00860FFF7EEFF5A
:1001C00010BD0000140401402DE9F84FDFF8B8918C
:1001D000002409F1040A0AF1040B23460F270BF14E
:1001E000040EC9E00125A5402A40AA427DD1674EF0
:1001F000D1F804C0ACEB0608B44532D014DCBCF135
:10020000030F3AD009DCBCF1000F2AD0BCF1010F7A
:100210001CD0BCF1020F31D11DE0BCF1110F17D081
:10022000BCF1120F2AD119E0B8F5881F19D006DCED
:10023000B8F5803F15D0B8F5801F1FD111E0B8F593
:10024000001F0ED0B8F5041F18D10AE0CB6815E0E6
:10025000CB681B1D12E0CB6808330FE0CB680C3372
:100260000CE08B682BB1012B4FF0080303D04561E4
:1002700004E0042302E0056100E00023FF2A01D826
:10028000064601E000F104064FEA840501D9A5F114
:100290002005D6F8008007FA05FC28EA0C0803FAC6
:1002A00005F548EA0508C6F800804D68ED0062D5FE
:1002B000374DAE6946F00106AE61AD6924F0030624
:1002C00005F001050095334D06EB050CDCF80850F0
:1002D000A607360F07FA06F825EA0805DFF8B88002
:1002E000404503D14FF0000817E044E0DFF8AC8050
:1002F000404502D14FF001080FE0DFF8A4804045EF
:1003000002D14FF0020808E0DFF89880404502D1A2
:100310004FF0030801E04FF0040808FA06F848EA35
:100320000508CCF808804D68D9F80060ED034D460B
:1003300001D5164300E096432E604D68DAF8006060
:10034000AD03554601D5164300E096432E604D6837
:10035000DBF80060ED025D4601D5164300E09643F0
:100360002E604D68DEF80060AD02754601D516437B
:1003700000E096432E60641C0D682A46E5407FF439
:1003800031AFBDE8F88F00000004014000001110FB
:10039000001002400000014000080140000C014034
:1003A00000100140001401400AB1016170470904C6
:1003B000FBE700000148806870470000B40000209F
:1003C00070B5040025D094F83D00002520B984F8CC
:1003D0003C50204600F076FA242084F83D00206846
:1003E000016821F0010101602068016841F40041C9
:1003F00001602068016821F40041016000F0BEFB4B
:100400004D4A6168914201D84C4900E04C4988420C
:1004100001D2012070BD4B492368B0FBF1F15E6849
:1004200026F03F060E435E606368934206D94FF4A0
:10043000967359434FF47A73B1FBF3F12368491C67
:100440001E6A26F03F06314319626168914210D856
:100450004900401EB0FBF1F2521CC2F30B02042A09
:1004600001D2042022E0B0FBF1F0401CC0F30B00ED
:100470001CE0A268F2B301EBC10303EB0116431EBB
:10048000B3FBF6F35B1C43F480431B0549D092B3E6
:1004900001EBC10202EB0111401EB0FBF1F0401C68
:1004A000C0F30B0040F4804040F400402168CA696A
:1004B0004CF6FF739A431043C861D4E90710014317
:1004C0002068026822F0C00211430160D4E90301F0
:1004D00001432068826848F2FF339A4311438160E8
:1004E000D4E9050108432168CA6822F0FF021043DD
:1004F000C86001E00EE016E02068016841F00101EB
:1005000001602564202084F83D00256384F83E5076
:10051000002070BD01EB4106431EB3FBF6F35B1CEC
:10052000B3E70120C2E701EB4101401EB0FBF1F04F
:10053000401CC0F30B00B7E7A086010080841E00BA
:1005400000093D0040420F002DE9F84F1F4690463C
:100550008A460446DDF82890FFF72CFF054694F8FC
:100560003D0020287FD119230122404920460095D3
:1005700000F078FF002876D194F83C00012872D072
:10058000012084F83C0020680168C90703D1016894
:1005900041F0010101602068016821F400610160FF
:1005A000212084F83D00102084F83E0000262664B7
:1005B000C4F824806785608D20852D48E0622B4635
:1005C0004A465146204600F05BFE90B920684169DA
:1005D0008069009036E02A464946204600F0F4FF44
:1005E00050B1206C042804D12068016841F40071E6
:1005F00001600120BDE8F88F606A21680078086119
:10060000606A401C6062618D491E6185218D491EB2
:1006100089B2218522685369DB435B070BD451B152
:1006200000781061606A401C6062608D401E6085C9
:10063000208D401E20852A464946204600F0ECFECB
:100640000028CED1208D0028C5D154F83D0B01687B
:1006500041F400710160202004F81E09E6776677F6
:100660000020C7E7FFE70220C4E7000002001000F7
:100670000000FFFF2DE9FF4F83B00025DDE9107971
:100680009A4693460446DDF848800095FFF792FEAF
:10069000064694F83D0020287CD119230122854983
:1006A0002046009600F0DEFE0028F5D194F83C00CC
:1006B00001286FD0012084F83C0020680168C90738
:1006C00003D1016841F0010101602068016821F453
:1006D00000610160222084F83D00402084F83E0043
:1006E00025646762A4F82A90608D20857248E062D4
:1006F000CDE9008653465A462046049900F00EFE86
:1007000000287DD1208DDFF8B491202768B1012821
:1007100014D00228206801681ED041F48061016075
:100720002068416980690090B6E02068416981696C
:100730000091016841F400710160ADE0206801683A
:1007400021F48061016072B620684169816900917D
:10075000016841F400710AE041F40061016072B681
:100760002068416981690091016821F4806101601C
:1007700062B691E0032868D801280CD002284346CD
:100780004FF000024946204600960FD000F06AFE66
:10079000B0BB10E08BE032464146204600F0E1FE5F
:1007A00070BB20680069616A08706CE000F05AFE56
:1007B00030BB72B634E02068016821F480610160CA
:1007C00072B620680069616A0870606A401C6062E5
:1007D000208D401E2085608D401E6085384846F281
:1007E000A8110068B0FBF1F0C0EBC00000EB800086
:1007F0000090401E009008D020684069C04300E08F
:1008000029E040070CD50098F3E744F8305F6773A0
:10081000A573206940F02000206162B625731AE0BC
:100820002068016841F40071016020680069616A14
:100830000870606A401C6062218D491E2185618DAF
:10084000491E618562B621681BE03246414620465A
:1008500000F087FE18B1012007B0BDE8F08F2068D6
:100860000069616A0870606A401C6062218D491EDF
:100870002185618D491E618521684A69D2435207ED
:100880000AD409690170606A401C6062208D401EB4
:100890002085608D401E6085208D00287FF46AAF22
:1008A00084F83D7084F83E5084F83C50D4E7022030
:1008B000D2E70000020010000000FFFF040001006A
:1008C000C000002010B586B0002100910191029176
:1008D000039100680F4988421AD10F4CA06940F07B
:1008E0000800A061A069694600F008000490C020DB
:1008F000009012200190032003900848FFF764FC49
:10090000E06940F40010E061E06900F40010049038
:1009100006B010BD0054004000100240000C014021
:10092000024881680278114481607047B400002059
:10093000074810B5016841F010010160032000F084
:1009400075F8002000F006F800F024F8002010BD33
:100950000020024070B50D4D04464FF47A7128789E
:10096000B1FBF0F00A490968B1FBF0F000F05BFC64
:1009700048B9102C07D200222146501E00F036F84C
:1009800000206C6070BD012070BD0000B40000202C
:10099000C00000200C4808B5816941F00101816167
:1009A000816901F001010091C16941F08051C1618B
:1009B000C06900F0805000900448416821F0E06177
:1009C00041F00071416008BD00100240000001408C
:1009D000002809DB00F01F0201219140400980003E
:1009E00000F1E020C0F8001170470000F0B40E4B99
:1009F0001B680C46C3F30223C3F10705042D00D97D
:100A00000425191D072901D2002300E0DB1E012661
:100A100006FA05F1491E214099409E40761E164077
:100A20003143F0BC00F053BF0CED00E0064900F08C
:100A3000070208684FF6FF03184040EA0220034A05
:100A400010430860704700000CED00E00000FA055C
:100A50002DE9F0470F46050061D0434E306800F0A5
:100A60000700B84209D2306820F0070038433060F0
:100A7000306800F00700B84251D128683B4C81072C
:100A800012D5400703D5606840F4E06060602878C4
:100A9000000703D5606840F4605060606068A96832
:100AA00020F0F000084360602878C00728D068680C
:100AB000012810D02168022810D0890700292EDAD9
:100AC000616821F0030101436160FFF773FC804618
:100AD00041F288390DE021688903EFE78901EDE7EC
:100AE000FFF768FCA0EB0801494502D90320BDE8E7
:100AF000F0876068696800F00C00B0EB810FEFD1FF
:100B0000306800F00700B8420BD9306820F00700C9
:100B100038433060306800F00700B84201D001204F
:100B2000E5E72878400705D56068E96820F4E060CB
:100B3000084360602878000706D56068296920F4BA
:100B4000605040EAC100606000F028F86168084A1F
:100B5000C1F30311515CC8400649086006480068AB
:100B6000FFF7F8FE0020C2E700200240001002401C
:100B7000A0210008C0000020B8000020044805495A
:100B800000684968044AC1F30221515CC8407047BB
:100B9000C000002000100240B021000812A185B062
:100BA0000FC98DE80F0014A0144A00680490516822
:100BB000134801F00C03042B10D0082B0ED1C1F305
:100BC0008343C9031DF803000AD5516804AAC1F381
:100BD0004041515C0A4A5043B0FBF1F005B0704708
:100BE00008494843FAE7000002030405060708091C
:100BF0000A0B0C0D0E0F1010010200000010024035
:100C000000127A0000093D0030B585B00020029046
:100C100002200190032003900B4C4FF48070009051
:100C2000A0690D4640F00400A061A069694600F08B
:100C3000040004900548FFF7C7FA606820F0E06000
:100C40002843606005B030BD00100240000801403C
:100C50002DE9F84F040070D02078C04DC00749D06E
:100C60006868C0F38100012807D06868C0F381007C
:100C7000022809D16868C00306D52868800339D5E1
:100C800060680028E7D035E06068B0F5803F0BD0A1
:100C900010B1B0F5A02F11D0286820F48030286062
:100CA000286820F4802002E0286840F48030286022
:100CB000606890B1FFF77EFB06460AE0286840F4C2
:100CC00080202860F0E700BFFFF774FB801B6428DA
:100CD00073D828688003F7D50CE0FFF76BFB064656
:100CE00005E000BFFFF766FB801B6428F0D828688A
:100CF0008003F7D420789A4E80074FF001094FF017
:100D0000000839D5686810F00C0F07D06868C0F388
:100D10008100022809D16868C00306D428688007CA
:100D200014D52069012808D110E02069B0B1C6F8B7
:100D30000090FFF73FFB074605E00AE1FFF73AFBAB
:100D4000C01B0228C4D828688007F7D528686169C5
:100D500020F0F80040EAC10028600DE0C6F80080ED
:100D6000FFF728FB074604E0FFF724FBC01B02281F
:100D700023D828688007F7D4207800072CD5794835
:100D8000A169D9B1C0F80090FFF714FB074604E051
:100D9000FFF710FBC01B02280FD8686A8007F7D541
:100DA00071484FF4FA510068B0FBF1F0009000BFB9
:100DB0000098411E0091FAD20EE080E0C0F8008059
:100DC000FFF7F8FA074604E0FFF7F4FAC01B022821
:100DD00075D8686A8007F7D42078400760D5E8693D
:100DE0000027C00008D4E86940F08050E861E86955
:100DF000012700F0805000905C480168C90513D4B9
:100E00000168834641F480710160FFF7D3FA82469E
:100E100006E000BFFFF7CEFAA0EB0A0064284ED828
:100E2000DBF80000C005F5D5E06801280AD008B15C
:100E3000052813D0286A20F001002862286A20F0D3
:100E4000040002E0286A40F001002862E06841F2F4
:100E5000883B98B1FFF7AEFA82460BE0286A40F073
:100E600004002862EEE700BFFFF7A4FAA0EB0A0136
:100E700059455AD8286A8007F6D50CE0FFF79AFA48
:100E8000824605E0FFF796FAA0EB0A0159454CD8D7
:100E9000286A8007F6D41FB1E86920F08050E86125
:100EA000E06988B36968C1F38101022944D002284E
:100EB000C6F8608004D0FFF77DFA044638E034E0DD
:100EC000FFF778FA074604E0FFF774FAC01B022820
:100ED0002BD828688001F7D4206AB0F5803F05D16F
:100EE0006868A16820F4003008436860D4E908010C
:100EF0000843696821F4741108436860C6F860907B
:100F0000FFF758FA044606E025E000BFFFF752FA63
:100F1000001B022809D828688001F7D51BE000BF14
:100F2000FFF748FA001B022802D90320BDE8F88F1A
:100F300028688001F4D40EE00128F7D06868226A9E
:100F400000F48031914204D1616A00F4701088424B
:100F500001D00120EAE70020E8E70000001002408D
:100F60000000424280044242C00000200070004065
:100F700070B5040009D0606A002540B12561656143
:100F8000A56294F8510040B10CE0012070BD60688A
:100F9000B0F5827FF4D0E561F2E784F85050204646
:100FA00000F040F8022084F851002068016821F028
:100FB00040010160A088218900F4827001F404419D
:100FC0000843A18901F400610843217C01F002017A
:100FD0000843217D01F001010843218B01F40071D8
:100FE0000843217F01F03801084394F8201001F0F4
:100FF00080010843218D01F40051084321680860F5
:10100000A069042101EA1040216848602068C16994
:1010100021F40061C1616565012084F85100002060
:1010200070BD000010B586B00021009101910291C1
:1010300003911E4C03681E4802210322A34216D1CD
:10104000836943F480538361836903F48053049379
:10105000836943F0040383618069039200F0040014
:101060000490A020CDE900016946124819E0124C15
:10107000A34218D1C36943F48043C361C36903F435
:1010800080430493836943F008038361806903927A
:1010900000F0080004904FF42040CDE900016946BB
:1010A0000648FFF791F806B010BD0000003001407F
:1010B000001002400008014000380040000C0140D0
:1010C0002DE9F84F044690F8500000271D461646BB
:1010D000894601280DD04FF0010B84F850B0FFF77E
:1010E00069F9804694F85100BA46012804D00227D5
:1010F00093E00220BDE8F88FB9F1000F73D0002E05
:1011000071D0032084F85100C4F854A0C4F8309082
:10111000A686E686C4F838A0A4F83CA0A4F83EA0B1
:10112000C4F844A0C4F840A0A068B0F5004F09D1AD
:101130002068016821F0400101602068016841F4E5
:101140008041016020680168490603D4016841F0CC
:1011500040010160E068B0F5006F606803D030B313
:10116000012E24D041E008B1012E1CD1206B216852
:101170000088C86006E020688168890709D5216B6E
:101180000988C160206B801C2063E08E401EE086D1
:1011900009E0FFF70FF9A0EB0800A84202D3681C92
:1011A00001D031E07DB3E08E0028E4D120E0206B57
:1011B00021680078087306E020688168890709D5EE
:1011C000216B09780173206B401C2063E08E401E68
:1011D000E0860AE0FFF7EEF8A0EB0800A84203D390
:1011E000681C02D010E017E06DB1E08E0028E3D15A
:1011F00042462946204600F0CCFA08B1202060651E
:10120000A06818B106E0FFE7032706E02068C16880
:1012100080680090606D00B1012784F851B084F8B7
:1012200050A0384666E710B5401EB0F1807F01D36C
:10123000012010BD4FF0E02460610F21601700F025
:1012400046FB0020A06107202061002010BDFEE7C2
:1012500001684A69D24352050FD46FF480624A6133
:10126000002140F8301F202242738173026942F04E
:1012700004020261017301207047002070470000E2
:10128000F8B50446C06A1E460D461746082807D022
:10129000012805D010F5803F02D0206B122804D120
:1012A0002068016841F480710160134600224FF00C
:1012B00001112046009600F0D5F840B12068006882
:1012C000C00502D54FF4007020640320F8BD2069EA
:1012D000B0F5804F0ED00620216800EAD51040F00E
:1012E000F000086133463A460B49204600F0EEF81C
:1012F00078B902E005F0FE0000E0E8B2216808617C
:10130000054933463A46891F204600F0DFF8002899
:10131000DCD00120F8BD0000080001002DE9F84FE5
:101320000446006889460B9D01689846174641F4BB
:10133000806101602068016841F48071016000955E
:101340004FF0011B0022594620460A9B00F08AF804
:101350004FF4007A40B120680068C00501D5C4F898
:1013600040A00320BDE8F88F216809F0FE00086165
:101370002B46284920460A9A00F0A8F8F0BB2068BE
:101380004169806900902A4620460A9900F01CF9BC
:1013900040B1206C04283AD12068016841F4007102
:1013A000016034E0FEB2B8F1010F09D02168380ABB
:1013B00008612A4620460A9900F006F90028E8D17B
:1013C000206806612A4620460A9900F0FDF80028A8
:1013D000DFD12068016841F480710160009500222E
:1013E000594620460A9B00F03DF80028B3D12168F9
:1013F00009F0FF0040F00100086100E007E02B4623
:10140000044920460A9A00F061F80028AAD0012079
:10141000A8E700000200010070B516460D4604461C
:101420000DE02046FFF714FF08B1012070BD681CD5
:1014300005D0FEF7BFFF801BA84207D835B1206852
:101440004069C0434007ECD4002070BD002044F840
:10145000300F20216173A073216941F020012161C7
:101460002073E2E72DE9F0471E4690460D460446FC
:10147000C1F30747DDF8209008E0701C06D0FEF7A6
:1014800099FFA0EB0900B0420FD876B12068012F78
:1014900018D0806925EA00000004000C14D0002157
:1014A0004145EAD00020BDE8F087002044F8300F25
:1014B00020216173A073216941F020012161207313
:1014C0000120F0E74069E5E70121E9E72DE9F04770
:1014D0009A4691460E46044600254FF02008C1F377
:1014E000074725E020684069C043400514D42068C0
:1014F000016841F40071016021686FF48060486107
:10150000256384F83D8084F83E50206C40F0040050
:10151000206484F83C501FE0B9F1FF3F08D0FEF78B
:1015200049FFA0EB0A0149450CD8B9F1000F09D0D9
:101530002068012F13D0806926EA00000004000C07
:101540000BD0CFE744F8305F84F80D80A573206995
:1015500040F02000206125730120BDE8F08740693C
:10156000EAE72DE9F041002590460E460446202783
:1015700017E04069C043C0060CD454F8301B6FF02C
:101580001000486144F810596777A577206A2062F7
:10159000257717E0FEF70EFFA0EB0800B04208D851
:1015A0003EB120684169C9434906E2D40020BDE844
:1015B000F08144F8305F6773A573206940F0200024
:1015C000206125730120F2E770B516460D460446EA
:1015D0000DE02046FFF73CFE08B1012070BD681CFD
:1015E00005D0FEF7E7FE801BA84207D835B120687A
:1015F0004069C0430006ECD4002070BD002044F8D0
:10160000300F20216173A073216941F02001216115
:101610002073E2E7F0B585B00024244800940194DB
:1016200002940394816941F020018161816901F094
:1016300020010491816941F004018161816901F017
:1016400004010491816941F0080181618069184FAA
:1016500000F00800049000220F213846FEF7A4FE97
:101660000F200126CDE90006022569463846CDE95E
:101670000245FEF7A9FD0F480096CDE90104694631
:101680000D48FEF7A1FDE801CDE9000569463846A1
:101690000395FEF799FD002211460620FFF7A6F9F3
:1016A0000620FFF795F905B0F0BD000000100240DC
:1016B0000008014000001110000C01400D4810B559
:1016C0000B4901600C49416000214FF48042816068
:1016D000C0E9031241618161C1610162FEF770FEE0
:1016E000002803D0BDE81040FEF745BD10BD000046
:1016F00000540040C4000020A0860100104810B52E
:101700000E4901604FF48271416000218160C16027
:101710004FF400720161C0E905120822C0E90721F7
:10172000416281620A21C162FFF722FC002803D0D6
:10173000BDE81040FEF71FBD10BD000000300140A5
:1017400018010020104810B50E4901604FF4827155
:10175000416000218160C1604FF400720161C0E905
:1017600005120822C2618022C0E9082181620A2193
:10177000C162FFF7FDFB002803D0BDE81040FEF773
:10178000FABC10BD0038004070010020FEE7704731
:10179000704738B50B46009204460022802100F0C5
:1017A00009F8002804D0606D40F020006065032037
:1017B00038BD00002DE9F8431E4691468846044690
:1017C000089DFEF7F7FD401B351AFEF7F3FD0746AF
:1017D00025480068C0F3CB30684338E0701C37D030
:1017E000FEF7E8FDC01BA84203D215B1009860B314
:1017F0002CE02068416821F0E00141606068B0F5AC
:10180000827F0BD1A068B0F5004F02D0B0F5806F99
:1018100004D12068016821F040010160A06AB0F5A0
:10182000005F09D12068016821F40051016020683F
:10183000016841F400510160012084F8510000204A
:1018400084F850000320BDE8F8830025401E009076
:101850002068816838EA010004D000214945BDD1E3
:101860000020F0E70121F9E7C00000207047FFF7F2
:1018700057B830B58FB028216846FEF75AFC1421BE
:101880000AA8FEF756FC02240120049000941020C0
:10189000059000254FF46010CDE908500794684684
:1018A000FFF7D6F90AA90F2081E831006002CDE9DF
:1018B0000D0502210AA8FFF7CBF800224FF0E061E6
:1018C0001046FFF7A1F90FB030BD7047FEE70907DA
:1018D000090E002804DB00F1E02080F800147047B6
:1018E00000F00F0000F1E02080F8141D704702E0C6
:1018F00008C8121F08C1002AFAD17047704700209B
:1019000001E001C1121F002AFBD170470EB5064944
:10191000642306228DE80E0002460123A721034816
:10192000FEF7A8FE0EBD00002C000020C400002021
:101930001CB502238DF8040064208DF8051000907A
:1019400001AAA6210148FEF7FFFD1CBDC40000202E
:101950000EB50D48642206218DE807000123002200
:10196000A7210A48FEF786FE01213120FFF7E0FF9C
:1019700000212D20FFF7DCFF03B008212D205DF8AA
:1019800004EBFFF7D5BF000000000020C4000020DA
:101990001CB5154C0020A070A278E169E089D14007
:1019A000921E90400091ADF80400022101A800F0C1
:1019B00047FB0321684600F063FB4620FEF7DCFB93
:1019C000A078401CC0B2A0700628E5D906480221C4
:1019D000143000F035FB04480321283000F050FBA0
:1019E0003220FEF7C9FB1CBD000000201CB5154CC1
:1019F0000020E070E278E169E0899140D21ED04099
:101A00000091ADF80400022101A800F019FB0321A8
:101A1000684600F035FB3220FEF7AEFBE078401C54
:101A2000C0B2E0700628E5D906480221123000F065
:101A300007FB04480321243000F022FB3220FEF78C
:101A40009BFB1CBD0000002010B50221074800F0E0
:101A5000F7FA06480321103000F012FB3220FEF79F
:101A60008BFB024901201039887210BD1000002044
:101A700070B51A4D002400BF05EB4400022100F0B0
:101A8000DFFA3220FEF778FB641C0F2CF4DD0F2404
:101A900005EB4400022100F0D3FA3220FEF76CFB84
:101AA000641EF5D50D4D002415F1220505EB8400CB
:101AB000032100F0E5FA3220FEF75EFB641C172CD0
:101AC000F4DD172405EB8400032100F0D9FA32205D
:101AD000FEF752FB641EF5D570BD000032000020F9
:101AE00010B503210C4800F0CBFA0B4802216038F6
:101AF00000F0A6FAC820FEF73FFB074803215C3838
:101B000000F0BEFA044802217E3800F099FABDE8E0
:101B10001040C820FEF730BBB00000201CB5154CAB
:101B200000206072627AA16AA08A9140521ED04061
:101B30000091ADF80400022101A800F081FA032110
:101B4000684600F09DFA3220FEF716FB607A401CD2
:101B5000C0B260720528E5D9064802210E3000F0B7
:101B60006FFA044803211C3000F08AFA3220FEF795
:101B700003FB1CBD0000002010B50221074800F047
:101B80005FFA06480321123000F07AFA3220FEF79D
:101B9000F3FA024901201239487310BD12000020E7
:101BA0001CB5154C00202072227AA16AA08AD1406F
:101BB000521E90400091ADF80400022101A800F0EF
:101BC0003FFA0321684600F05BFA3220FEF7D4FAB0
:101BD000207A401CC0B220720528E5D906480221AF
:101BE000103000F02DFA04480321203000F048FAAC
:101BF0003220FEF7C1FA1CBD00000020FEF798FE5F
:101C0000FFF737FEFFF706FDFFF758FDFFF776FDFC
:101C1000FFF798FDFFF79CFECF4C002202212046E3
:101C2000FEF7C2FB6420FEF7A7FA0122022120463C
:101C3000FEF7BAFB6420FEF79FFA00220821204637
:101C4000FEF7B2FB6420FEF797FA01220821204636
:101C5000FEF7AAFBDFF804A36FF02C076FF0400B30
:101C60000026AAF12C04607800287CD13220FFF7EE
:101C70004DFEBAF80000E082BAF902002083BAF8FB
:101C80000410554661832D2852DD4FF47A70FEF71B
:101C900073FA3220FFF73AFEB5F90080B5F90290E9
:101CA000B8F1410F0FDDA07806280CD0FFF770FEC9
:101CB00066732673A672E67266722672E671A67164
:101CC00066712671E670B8450FDAE07806280CD008
:101CD000FFF78CFE66732673A672E6726672267232
:101CE000E671A67166712671A670B9F12D0F0DDD32
:101CF000B4F91A001E2809DA98480321103800F0B8
:101D0000BFF9964802211E3800F09AF9B9450FDA5A
:101D1000A07A01280CD0FFF797FE66732673E6724F
:101D200066722672E671A67166712671E670A670FB
:101D3000B4F916002D284BDD4FF47A70FEF71CFA2B
:101D40003220FFF7E3FDB5F90080B5F90290B8F154
:101D50002D0F0BDD81480321001F00F091F97F4812
:101D60000221183800E0E1E000F06AF9D8450FDA06
:101D7000607B01280CD0FFF7FFFE2673E672A67287
:101D800066722672E671A67166712671E670A6709B
:101D9000B9F1370F0ADD607A052819D0FFF7BEFECA
:101DA0002673E672A672667326720BE0B9450FDAE7
:101DB000207A05280CD0FFF7F3FE66732673E672CF
:101DC0006672A672E671A67166712671E670A670DB
:101DD000B4F91800B8424FDA4FF47A70FEF7CCF934
:101DE0003220FFF793FDB5F90000B5F902802D28E8
:101DF00010DD207906281FD000F076F9667326736F
:101E0000A672E67266722672E671A6716671A67097
:101E1000E67011E0B8420FDA607906280CD000F0C5
:101E200091F966732673A672E67266722672E6717F
:101E3000A671E6702671A670B8F12D0F10DDE07A5C
:101E4000012819D000F03CF966732673A672E6707B
:101E500066722672E671A67166712671A6700BE035
:101E6000B84509DA3D4803210C3800F009F93B4830
:101E700002211C3800F0E4F8B4F91600B84255DA33
:101E80004FF47A70FEF778F93220FFF73FFDB5F98D
:101E90000000B5F90250412810DD207B01281DD03B
:101EA00000F08CF86672E672A67266732672E671AE
:101EB000A67166712671E670A6700FE058450DDABE
:101EC000B4F91A00282809DD24480321083800F055
:101ED000D7F8224802211A3800F0B2F84B2D13DD52
:101EE000B4F91A0028280FDDE07905280CD000F09D
:101EF00037F82673E672A672667326726672A6714A
:101F000066712671E670A6705D450FDAA079052826
:101F10000CD000F067F866732673E6726672A672DC
:101F2000E671267266712671E670A67060780128E7
:101F300001D1FFF79DFD6078022807D1FFF7D0FDA2
:101F4000FFF7CEFDFFF7CCFDFFF7CAFD6078032851
:101F50007FF489AE667086E6000801402C00002000
:101F60001CB5154C0020E071E279616A608AD140AD
:101F7000521E90400091ADF80400022101A800F02B
:101F80005FF80321684600F07BF83220FEF7F4F892
:101F9000E079401CC0B2E0710528E5D9064802216D
:101FA0000E3000F04DF8044803211C3000F068F8B2
:101FB0003220FEF7E1F81CBD0000002010B5022120
:101FC000074800F03DF806480321143000F058F8A7
:101FD0003220FEF7D1F8024901201439087310BDF0
:101FE000140000201CB5154C0020A071A279616A74
:101FF000608A9140521ED0400091ADF80400022149
:1020000001A800F01DF80321684600F039F83220DD
:10201000FEF7B2F8A079401CC0B2A0710528E5D93E
:1020200006480221103000F00BF80448032120304C
:1020300000F026F83220FEF79FF81CBD00000020BB
:102040002DE9F0410C4C0E460746002201212046A6
:10205000FEF7AAF94FF496752B46324639460748E3
:10206000FFF72EF80028F7D12046BDE8F041012205
:102070001146FEF799B90000000801401801002040
:102080002DE9F0410C4C0E46074600220421204663
:10209000FEF78AF94FF496752B46324639460748C3
:1020A000FFF70EF80028F7D12046BDE8F0410122E5
:1020B0000421FEF779B900000008014070010020FA
:1020C00010B502210748FFF7BBFF064803210E3079
:1020D000FFF7D6FF3220FEF74FF8024901200E39F4
:1020E000C87210BD0E0000201CB5154C00202071D8
:1020F0002279216A208A9140D21ED0400091ADF809
:102100000400022101A8FFF79BFF03216846FFF7A7
:10211000B7FF3220FEF730F82079401CC0B22071A2
:102120000628E5D9064802211430FFF789FF044844
:1021300003212830FFF7A4FF3220FEF71DF81CBD55
:10214000000000201CB5154C002060716279216AE6
:10215000208AD140D21E90400091ADF804000221A7
:1021600001A8FFF76DFF03216846FFF789FF3220C2
:10217000FEF702F86079401CC0B260710628E5D90C
:10218000064802211230FFF75BFF04480321243088
:10219000FFF776FF3220FDF7EFFF1CBD00000020A7
:1021A0000000000000000000010203040607080907
:1021B0000000000001020304D821000800000020F4
:1021C000C4000000EE1800089C220008C400002093
:1021D00004050000FE1800080000000000000000D8
:1021E000000000000000C00103201800000C0000E7
:1021F00000000000003800000400C00000000F00D4
:10220000E0010000000000000000000001000300E9
:1022100007000F001F003F007F00FF00FF01FF03CA
:10222000FF07FF0FFF1FFF3FFF7FFFFF01000000C1
:1022300003000000070000000F0000001F00000066
:102240003F0000007F000000FF000000FF010000D1
:10225000FF030000FF070000FF0F0000FF1F00004A
:10226000FF3F0000FF7F0000FFFF0000FFFF0100B5
:10227000FFFF0300FFFF0700FFFF0F00FFFF1F002E
:10228000FFFF3F00FFFF7F00FFFFFF000100000096
:0C22900010000000000000000024F4001A
:04000005080000ED02
:00000001FF
